:100000000C9462000C9451040C942A040C948A0001
:100010000C948A000C948A000C948A000C948A0038
:100020000C948A000C948A000C948A000C948A0028
:100030000C948A000C948A000C948A000C948A0018
:100040000C9488030C948A000C94F8030C94D2034B
:100050000C948A000C948A000C948A000C948A00F8
:100060000C948A000C948A000000000024002700F1
:100070002A0000000000250028002B0000000000DE
:1000800023002600290004040404040404040202DA
:100090000202020203030303030301020408102007
:1000A0004080010204081020010204081020000012
:1000B0000008000201000003040700000000000027
:1000C0000000930611241FBECFEFD8E0DEBFCDBFE6
:1000D00011E0A0E0B1E0E4EFF1E102C005900D9283
:1000E000AE34B107D9F722E0AEE4B1E001C01D9211
:1000F000A530B207E1F710E0C2E6D0E004C02197D6
:10010000FE010E94F208C136D107C9F70E947804A7
:100110000C94F8080C940000AF92BF92CF92DF923B
:10012000EF92FF920F931F93CF93DF936C017B01AC
:100130008B01040F151FEB015E01AE18BF08C0173D
:10014000D10759F06991D601ED91FC910190F081B0
:10015000E02DC6010995892B79F7C501DF91CF9173
:100160001F910F91FF90EF90DF90CF90BF90AF90D5
:100170000895FC01538D448D252F30E0842F90E0AD
:10018000821B930B541710F0CF9608950197089592
:10019000FC01918D828D981761F0A28DAE0FBF2F5B
:1001A000B11D5D968C91928D9F5F9F73928F90E0B1
:1001B00008958FEF9FEF0895FC01918D828D981720
:1001C00031F0828DE80FF11D858D90E008958FEF5D
:1001D0009FEF0895FC01918D228D892F90E0805C26
:1001E0009F4F821B91098F739927089588E691E0AC
:1001F0000E94EA0021E0892B09F420E0822F089573
:1002000080E090E0892B29F00E94F60081110C9487
:1002100000000895FC01A48DA80FB92FB11DA35AA9
:10022000BF4F2C91848D90E001968F739927848F16
:10023000A689B7892C93A089B1898C918370806439
:100240008C93938D848D981306C00288F389E02DDA
:1002500080818F7D80830895EF92FF920F931F938B
:10026000CF93DF93EC0181E0888F9B8D8C8D981369
:100270001AC0E889F989808185FF15C09FB7F89475
:10028000EE89FF896083E889F989808183708064C1
:1002900080839FBF81E090E0DF91CF911F910F910C
:1002A000FF90EF900895F62E0B8D10E00F5F1F4F1B
:1002B0000F731127E02E8C8D8E110CC00FB607FC2A
:1002C000FACFE889F989808185FFF5CFCE010E94B8
:1002D0000A01F1CFEB8DEC0FFD2FF11DE35AFF4F1B
:1002E000F0829FB7F8940B8FEA89FB898081806246
:1002F000CFCFCF93DF93EC01888D8823B9F0AA8903
:10030000BB89E889F9898C9185FD03C0808186FDD0
:100310000DC00FB607FCF7CF8C9185FFF2CF80811F
:1003200085FFEDCFCE010E940A01E9CFDF91CF9189
:100330000895833081F028F4813099F08230A9F05B
:1003400008958730A9F08830C9F08430B1F48091E5
:1003500080008F7D03C0809180008F778093800024
:10036000089584B58F7784BD089584B58F7DFBCFC4
:100370008091B0008F778093B00008958091B00095
:100380008F7DF9CFCF93DF93282F30E0F901E2552D
:10039000FF4F8491F901E656FF4FD491F901EA57D6
:1003A000FF4FC491CC23A1F081110E949901EC2F41
:1003B000F0E0EE0FFF1FE458FF4FA591B491EC91D0
:1003C000ED2381E090E009F480E0DF91CF91089582
:1003D00080E090E0FACF1F93CF93DF93282F30E097
:1003E000F901E255FF4F8491F901E656FF4FD49190
:1003F000F901EA57FF4FC491CC23A9F0162F8111C0
:100400000E949901EC2FF0E0EE0FFF1FEE58FF4F16
:10041000A591B4918FB7F894EC91111108C0D095C3
:10042000DE23DC938FBFDF91CF911F910895DE2BE8
:10043000F8CFCF93DF9390E0FC01E656FF4F249175
:100440008A579F4FFC0184918823C9F090E0880F60
:10045000991FFC01E859FF4FA591B491FC01EE589A
:10046000FF4FC591D49161110DC09FB7F8948C9145
:10047000209582238C938881282328839FBFDF9136
:10048000CF910895623051F49FB7F8943C91822F38
:10049000809583238C93E8812E2BEFCF8FB7F89430
:1004A000EC912E2B2C938FBFEACF1F93CF93DF932A
:1004B000182FEB0161E00E941902209739F460E0E7
:1004C000812FDF91CF911F910C94EB01CF3FD1058C
:1004D00011F461E0F5CFE12FF0E0E255FF4FE49138
:1004E000E33031F140F4E130B1F0E230E1F0C03816
:1004F000D1057CF7E4CFE73029F1E83059F1E43059
:10050000B1F780918000806280938000D0938B004F
:10051000C0938A0004C084B5806884BDC7BDDF91E4
:10052000CF911F91089584B5806284BDC8BDF7CF77
:1005300080918000806880938000D0938900C09370
:100540008800EDCF8091B00080688093B000C093A8
:10055000B300E5CF8091B00080628093B000C0937B
:10056000B400DDCF8E50806480937C0080917A004F
:10057000806480937A0080917A0086FDFCCF809120
:10058000780090917900089508958F929F92AF928C
:10059000BF920F931F93CF93DF93CDB7DEB7A19791
:1005A0000FB6F894DEBF0FBECDBF19A2423008F4DB
:1005B0004AE08E010F5D1F4F842E912CB12CA12C8F
:1005C000A50194010E94D008E62FB901CA01EA30C2
:1005D00044F5E05DD801EE938D01232B242B252BD0
:1005E00079F790E080E0109769F0FD01019000201C
:1005F000E9F73197AF014A1B5B0BBD0188E691E03B
:100600000E948C00A1960FB6F894DEBF0FBECDBF3E
:10061000DF91CF911F910F91BF90AF909F908F90DE
:100620000895E95CD7CFCF92DF92EF92FF92CF93FC
:10063000DF936B017C016DE288E691E00E942C0162
:10064000EC0166277727CB016C197D098E099F097C
:100650004AE00E94C5028C0F9D1FDF91CF91FF9051
:10066000EF90DF90CF900895FC0101900020E9F712
:100670003197AF01481B590BBC0188E691E00C94FF
:100680008C0090915E0181E0911180E080935E0189
:1006900082E00E94C201909351018093500186E153
:1006A00091E00E9434036091500170915101072E36
:1006B000000C880B990B97FF21C00E94130382E264
:1006C00091E00E94340383E00E94C20190934F01A5
:1006D00080934E018DE291E00E94340360914E01BF
:1006E00070914F01072E000C880B990B97FF0AC0E1
:1006F0000E94130382E291E00C9434034AE00E94CA
:10070000C502DDCF4AE00E94C502F4CF0C9441033C
:100710001F920F920FB60F9211242F933F938F9336
:100720009F93AF93BF938091640190916501A091D5
:100730006601B09167013091630123E0230F2D37EB
:1007400058F50196A11DB11D2093630180936401AA
:1007500090936501A0936601B093670180915F015A
:1007600090916001A0916101B09162010196A11D7B
:10077000B11D80935F0190936001A0936101B093DC
:100780006201BF91AF919F918F913F912F910F90F7
:100790000FBE0F901F90189526E8230F0296A11DFB
:1007A000B11DD2CF1F920F920FB60F9211242F932B
:1007B0003F934F935F936F937F938F939F93AF93E9
:1007C000BF93EF93FF9388E691E00E940A01FF91A7
:1007D000EF91BF91AF919F918F917F916F915F91B9
:1007E0004F913F912F910F900FBE0F901F90189532
:1007F0001F920F920FB60F9211242F938F939F93F6
:10080000EF93FF93E0917801F09179018081E0917D
:100810007E01F0917F0182FD1BC09081809181015A
:100820008F5F8F7320918201821741F0E0918101E7
:10083000F0E0E859FE4F958F80938101FF91EF9191
:100840009F918F912F910F900FBE0F901F90189531
:100850008081F4CF1F920F920FB60F9211242F9325
:100860003F934F935F936F937F938F939F93AF9338
:10087000BF93EF93FF93E0910201F091030109957B
:10088000FF91EF91BF91AF919F918F917F916F9168
:100890005F914F913F912F910F900FBE0F901F903E
:1008A00018951F920F920FB60F9211242F933F931A
:1008B0004F935F936F937F938F939F93AF93BF9368
:1008C000EF93FF93E0910001F09101010995FF91F1
:1008D000EF91BF91AF919F918F917F916F915F91B8
:1008E0004F913F912F910F900FBE0F901F90189531
:1008F000789484B5826084BD84B5816084BD85B5FB
:10090000826085BD85B5816085BD80916E00816006
:1009100080936E00109281008091810082608093AC
:1009200081008091810081608093810080918000AE
:100930008160809380008091B10084608093B100D9
:100940008091B00081608093B00080917A008460D3
:1009500080937A0080917A00826080937A008091FF
:100960007A00816080937A0080917A008068809319
:100970007A001092C10061E087E00E94190261E0F4
:1009800088E00E94190261E085E00E94190261E09E
:100990008EE00E94190261E084E00E94190261E089
:1009A00089E00E94190261E086E00E94190261E07C
:1009B0008FE00E94190260E082E10E94190260E06B
:1009C00083E10E9419028CE89EE2AAEDBFE38093C6
:1009D000560190935701A0935801B09359018CE0B0
:1009E00090E0909355018093540181EC91E09093B5
:1009F00053018093520161E08DE00E94190262E090
:100A000082E00E94190286E893E0909301018093AE
:100A10000001809169008C7F816080936900E89A71
:100A200062E083E00E94190281E493E09093030165
:100A30008093020180916900837F846080936900C4
:100A4000E99AE0917801F091790182E08083E09168
:100A50007401F09175011082E0917601F0917701B7
:100A60008FEC808310928001E0917C01F0917D01F8
:100A700086E08083E0917A01F0917B018081806142
:100A80008083E0917A01F0917B018081886080838E
:100A9000E0917A01F0917B01808180688083E09110
:100AA0007A01F0917B0180818F7D808339E7232E4D
:100AB000312C60915E018DE00E94EB0180915E011E
:100AC000811125C060E087E00E94EB0160E088E0D2
:100AD0000E94EB0170E060E085E00E94550260E05A
:100AE00084E00E94EB0160E089E00E94EB0170E08D
:100AF00060E086E00E94550280E090E0892BC9F218
:100B00000E94F6008823A9F20E940000D2CF61E083
:100B10008EE00E94EB0161E08FE00E94EB0182E138
:100B20000E94B20297FD0396EC01D595C795D59525
:100B3000C795D0935D01C0935C0183E10E94B2022E
:100B400097FD03968C011595079515950795063821
:100B500011050CF4B3C0B80165587109072E000CDB
:100B6000880B990B0E94D70720E030E044EF52E455
:100B70000E942D074B015C0168E270E0C131D10594
:100B800054F16EEB70E0C936D1052CF5BE010D2E87
:100B9000000C880B990B0E94D707209156013091C9
:100BA000570140915801509159010E9463086B010F
:100BB0007C016091540170915501072E000C880B47
:100BC000990B0E94D7079B01AC01C701B6010E9497
:100BD000C1060E949F07072E000C880B990B0E94EC
:100BE000D707A50194010E9463080E949F076B012B
:100BF0006EEB70E0C939D1058CF168E270E0C13F5D
:100C0000D10564F54090560150905701609058010D
:100C10007090590177FA709477F87094BE01DD0FE7
:100C2000880B990B0E94D7079B01AC01C301B2014D
:100C30000E9463082B013C016091520170915301A5
:100C4000072E000C880B990B0E94D7079B01AC0163
:100C5000C301B2010E94C1060E949F07072E000C2B
:100C6000880B990B0E94D707A50194010E94630885
:100C70000E949F072B0170935B0160935A01053816
:100C80001105A4F50A3711050CF01CCF60E087E0D0
:100C90000E94EB0161E088E00E94EB01B60177273A
:100CA00085E00E94550261E084E00E94EB0160E073
:100CB00089E00E94EB01B20177271BCF812C912C98
:100CC00080E8A82E8FE3B82E093711050CF054CF19
:100CD000B101601B710B072E000C880B990B0E9451
:100CE000D70720E030E042EF52E442CF5601BB2468
:100CF000EB01DD270538110549F261E087E00E942C
:100D0000EB0160E088E00E94EB01B50185E00E9404
:100D1000550260E084E00E94EB0161E089E00E94FE
:100D2000EB01BE01E6CEE8E6F1E01382128288EE26
:100D300093E0A0E0B0E084839583A683B78388E046
:100D400091E09183808385EC90E09587848784ECA3
:100D500090E09787868780EC90E0918B808B81EC88
:100D600090E0938B828B82EC90E0958B848B86EC69
:100D700090E0978B868B118E128E138E148E0895B1
:100D80005058BB27AA270E94D8060C9429080E9415
:100D90001B0838F00E94220820F039F49F3F19F414
:100DA00026F40C9418080EF4E095E7FB0C94120856
:100DB000E92F0E943A0858F3BA17620773078407AD
:100DC000950720F079F4A6F50C945C080EF4E095F4
:100DD0000B2EBA2FA02D0B01B90190010C01CA01F5
:100DE000A0011124FF27591B99F0593F50F4503EA0
:100DF00068F11A16F040A22F232F342F4427585F92
:100E0000F3CF469537952795A795F0405395C9F7A9
:100E10007EF41F16BA0B620B730B840BBAF0915061
:100E2000A1F0FF0FBB1F661F771F881FC2F70EC000
:100E3000BA0F621F731F841F48F4879577956795D3
:100E4000B795F7959E3F08F0B0CF9395880F08F0BF
:100E50009927EE0F9795879508950E9441070C9466
:100E600029080E94220858F00E941B0840F029F42B
:100E70005F3F29F00C94120851110C945D080C94FA
:100E800018080E943A0868F39923B1F3552391F3A7
:100E9000951B550BBB27AA2762177307840738F0E9
:100EA0009F5F5F4F220F331F441FAA1FA9F335D046
:100EB0000E2E3AF0E0E832D091505040E695001CFA
:100EC000CAF72BD0FE2F29D0660F771F881FBB1FB4
:100ED000261737074807AB07B0E809F0BB0B802D92
:100EE000BF01FF2793585F4F3AF09E3F510578F0BE
:100EF0000C9412080C945D085F3FE4F3983ED4F321
:100F0000869577956795B795F7959F5FC9F7880F91
:100F1000911D9695879597F90895E1E0660F771FE3
:100F2000881FBB1F621773078407BA0720F0621B74
:100F3000730B840BBA0BEE1F88F7E09508950E949F
:100F4000A6076894B1110C945D0808950E944208A8
:100F500088F09F5798F0B92F9927B751B0F0E1F07A
:100F6000660F771F881F991F1AF0BA95C9F714C02A
:100F7000B13091F00E945C08B1E008950C945C08D7
:100F8000672F782F8827B85F39F0B93FCCF3869563
:100F900077956795B395D9F73EF4909580957095C0
:100FA00061957F4F8F4F9F4F0895E89409C097FB3D
:100FB0003EF490958095709561957F4F8F4F9F4F30
:100FC0009923A9F0F92F96E9BB279395F695879574
:100FD00077956795B795F111F8CFFAF4BB0F11F437
:100FE00060FF1BC06F5F7F4F8F4F9F4F16C08823DE
:100FF00011F096E911C0772321F09EE8872F762F14
:1010000005C0662371F096E8862F70E060E02AF054
:101010009A95660F771F881FDAF7880F9695879540
:1010200097F9089597F99F6780E870E060E0089568
:101030009FEF80EC089500240A94161617061806F0
:101040000906089500240A941216130614060506CC
:101050000895092E0394000C11F4882352F0BB0F5D
:1010600040F4BF2B11F460FF04C06F5F7F4F8F4FC0
:101070009F4F089557FD9058440F551F59F05F3FFB
:1010800071F04795880F97FB991F61F09F3F79F0AA
:1010900087950895121613061406551FF2CF46952C
:1010A000F1DF08C0161617061806991FF1CF8695AE
:1010B0007105610508940895E894BB276627772792
:1010C000CB0197F908950E9476080C9429080E9494
:1010D0001B0838F00E94220820F0952311F00C9490
:1010E00012080C94180811240C945D080E943A0808
:1010F00070F3959FC1F3950F50E0551F629FF0016B
:10110000729FBB27F00DB11D639FAA27F00DB11D83
:10111000AA1F649F6627B00DA11D661F829F22270C
:10112000B00DA11D621F739FB00DA11D621F839F93
:10113000A00D611D221F749F3327A00D611D231F69
:10114000849F600D211D822F762F6A2F11249F57B7
:1011500050409AF0F1F088234AF0EE0FFF1FBB1FBA
:10116000661F771F881F91505040A9F79E3F510579
:1011700080F00C9412080C945D085F3FE4F3983EF5
:10118000D4F3869577956795B795F795E7959F5F23
:10119000C1F7FE2B880F911D9695879597F90895B5
:1011A000A1E21A2EAA1BBB1BFD010DC0AA1FBB1F6B
:1011B000EE1FFF1FA217B307E407F50720F0A21BDD
:1011C000B30BE40BF50B661F771F881F991F1A944A
:1011D00069F760957095809590959B01AC01BD0174
:1011E000CF010895EE0FFF1F0590F491E02D0994B3
:0411F000F894FFCFA1
:1011F400C402C402000000002C018C00B900790173
:10120400EA00C800DC006469672070696E20323A25
:1012140020000A0A0A0A0A0A0A0A0A2000646967FC
:101224002070696E203320286D616E75616C206BAF
:0E123400696C6C737769746368293A20000056
:00000001FF
